{
    "contractName": "SoulScarab",
    "abi": [
        {
            "inputs": [],
            "stateMutability": "nonpayable",
            "type": "constructor"
        },
        {
            "anonymous": false,
            "inputs": [
                {
                    "indexed": false,
                    "internalType": "uint256",
                    "name": "feeRate",
                    "type": "uint256"
                }
            ],
            "name": "FeeRateUpdated",
            "type": "event"
        },
        {
            "anonymous": false,
            "inputs": [
                {
                    "indexed": false,
                    "internalType": "address",
                    "name": "token",
                    "type": "address"
                },
                {
                    "indexed": false,
                    "internalType": "uint256",
                    "name": "amount",
                    "type": "uint256"
                },
                {
                    "indexed": false,
                    "internalType": "uint256",
                    "name": "id",
                    "type": "uint256"
                }
            ],
            "name": "Lock",
            "type": "event"
        },
        {
            "anonymous": false,
            "inputs": [
                {
                    "indexed": true,
                    "internalType": "address",
                    "name": "previousOwner",
                    "type": "address"
                },
                {
                    "indexed": true,
                    "internalType": "address",
                    "name": "newOwner",
                    "type": "address"
                }
            ],
            "name": "OwnershipTransferred",
            "type": "event"
        },
        {
            "anonymous": false,
            "inputs": [
                {
                    "indexed": false,
                    "internalType": "address",
                    "name": "recipient",
                    "type": "address"
                },
                {
                    "indexed": false,
                    "internalType": "uint256",
                    "name": "amount",
                    "type": "uint256"
                }
            ],
            "name": "Withdraw",
            "type": "event"
        },
        {
            "inputs": [
                {
                    "internalType": "address",
                    "name": "",
                    "type": "address"
                },
                {
                    "internalType": "uint256",
                    "name": "",
                    "type": "uint256"
                }
            ],
            "name": "depositsByWithdrawer",
            "outputs": [
                {
                    "internalType": "uint256",
                    "name": "",
                    "type": "uint256"
                }
            ],
            "stateMutability": "view",
            "type": "function"
        },
        {
            "inputs": [],
            "name": "depositsCount",
            "outputs": [
                {
                    "internalType": "uint256",
                    "name": "",
                    "type": "uint256"
                }
            ],
            "stateMutability": "view",
            "type": "function"
        },
        {
            "inputs": [
                {
                    "internalType": "address",
                    "name": "_recipient",
                    "type": "address"
                }
            ],
            "name": "getDepositsByWithdrawer",
            "outputs": [
                {
                    "internalType": "uint256[]",
                    "name": "",
                    "type": "uint256[]"
                }
            ],
            "stateMutability": "view",
            "type": "function"
        },
        {
            "inputs": [],
            "name": "getSoulTotalLockedBalance",
            "outputs": [
                {
                    "internalType": "uint256",
                    "name": "",
                    "type": "uint256"
                }
            ],
            "stateMutability": "view",
            "type": "function"
        },
        {
            "inputs": [
                {
                    "internalType": "uint256",
                    "name": "amount",
                    "type": "uint256"
                }
            ],
            "name": "getTribute",
            "outputs": [
                {
                    "internalType": "uint256",
                    "name": "fee",
                    "type": "uint256"
                }
            ],
            "stateMutability": "view",
            "type": "function"
        },
        {
            "inputs": [
                {
                    "internalType": "address",
                    "name": "_recipient",
                    "type": "address"
                },
                {
                    "internalType": "uint256",
                    "name": "_amount",
                    "type": "uint256"
                },
                {
                    "internalType": "uint256",
                    "name": "_unlockTimestamp",
                    "type": "uint256"
                }
            ],
            "name": "lockTokens",
            "outputs": [
                {
                    "internalType": "uint256",
                    "name": "id",
                    "type": "uint256"
                }
            ],
            "stateMutability": "nonpayable",
            "type": "function"
        },
        {
            "inputs": [
                {
                    "internalType": "uint256",
                    "name": "",
                    "type": "uint256"
                }
            ],
            "name": "lockedToken",
            "outputs": [
                {
                    "internalType": "contract IERC20",
                    "name": "soul",
                    "type": "address"
                },
                {
                    "internalType": "address",
                    "name": "recipient",
                    "type": "address"
                },
                {
                    "internalType": "uint256",
                    "name": "amount",
                    "type": "uint256"
                },
                {
                    "internalType": "uint256",
                    "name": "tribute",
                    "type": "uint256"
                },
                {
                    "internalType": "uint256",
                    "name": "unlockTimestamp",
                    "type": "uint256"
                },
                {
                    "internalType": "bool",
                    "name": "withdrawn",
                    "type": "bool"
                }
            ],
            "stateMutability": "view",
            "type": "function"
        },
        {
            "inputs": [],
            "name": "manifestor",
            "outputs": [
                {
                    "internalType": "address",
                    "name": "",
                    "type": "address"
                }
            ],
            "stateMutability": "view",
            "type": "function"
        },
        {
            "inputs": [],
            "name": "owner",
            "outputs": [
                {
                    "internalType": "address",
                    "name": "",
                    "type": "address"
                }
            ],
            "stateMutability": "view",
            "type": "function"
        },
        {
            "inputs": [],
            "name": "renounceOwnership",
            "outputs": [],
            "stateMutability": "nonpayable",
            "type": "function"
        },
        {
            "inputs": [],
            "name": "seance",
            "outputs": [
                {
                    "internalType": "contract SeanceCircle",
                    "name": "",
                    "type": "address"
                }
            ],
            "stateMutability": "view",
            "type": "function"
        },
        {
            "inputs": [
                {
                    "internalType": "address",
                    "name": "_manifestor",
                    "type": "address"
                }
            ],
            "name": "setManifestor",
            "outputs": [],
            "stateMutability": "nonpayable",
            "type": "function"
        },
        {
            "inputs": [],
            "name": "soul",
            "outputs": [
                {
                    "internalType": "contract SoulPower",
                    "name": "",
                    "type": "address"
                }
            ],
            "stateMutability": "view",
            "type": "function"
        },
        {
            "inputs": [
                {
                    "internalType": "address",
                    "name": "newOwner",
                    "type": "address"
                }
            ],
            "name": "transferOwnership",
            "outputs": [],
            "stateMutability": "nonpayable",
            "type": "function"
        },
        {
            "inputs": [],
            "name": "tributeRate",
            "outputs": [
                {
                    "internalType": "uint256",
                    "name": "",
                    "type": "uint256"
                }
            ],
            "stateMutability": "view",
            "type": "function"
        },
        {
            "inputs": [
                {
                    "internalType": "address",
                    "name": "",
                    "type": "address"
                },
                {
                    "internalType": "address",
                    "name": "",
                    "type": "address"
                }
            ],
            "name": "walletTokenBalance",
            "outputs": [
                {
                    "internalType": "uint256",
                    "name": "",
                    "type": "uint256"
                }
            ],
            "stateMutability": "view",
            "type": "function"
        },
        {
            "inputs": [
                {
                    "internalType": "uint256",
                    "name": "id",
                    "type": "uint256"
                }
            ],
            "name": "withdrawTokens",
            "outputs": [],
            "stateMutability": "nonpayable",
            "type": "function"
        }
    ],
    "bytecode": "60e06040527f124b06c5ce47de7a6e9efda71a946717130079e60000000000000000000000006080527fe2fb177009ff39f52c0134e8007fa0e4baacbd0700000000000000000000000060a0527ffd63bf84471bc55dd9a83fdfa293ccbd27e1f4c800000000000000000000000060c052678ac7230489e8000060075534801561008857600080fd5b506100996100946100b0565b6100b4565b600680546001600160a01b03191633179055610104565b3390565b600080546001600160a01b038381166001600160a01b0319831681178455604051919092169283917f8be0079c531659141344cd1fd0a4f28419497f9722a3daafe3b4186f6b6457e09190a35050565b60805160601c60a05160601c60c05160601c61167361018260003960006104130152600081816104fa015281816106a90152818161075701528181610816015281816108b50152818161095b01528181610a0301528181610a5501528181610b6b0152610c400152600081816103e401526105f901526116736000f3fe608060405234801561001057600080fd5b506004361061010b5760003560e01c8063815b7a8c116100a2578063b2f4a91f11610071578063b2f4a91f146101e4578063b9e7df1c146101ec578063bb941cff146101ff578063cf616f4014610224578063f2fde38b1461022c5761010b565b8063815b7a8c146101ae5780638da5cb5b146101b6578063a25983e5146101be578063a7953e5e146101d15761010b565b8063469d86e2116100de578063469d86e21461015e5780634ca01d451461017e5780636f8dfd0914610193578063715018a6146101a65761010b565b806323c4a92114610110578063315a095d146101395780633bf59ece1461014e5780634506e93514610156575b600080fd5b61012361011e366004611083565b61023f565b6040516101309190611565565b60405180910390f35b61014c6101473660046110fe565b610270565b005b6101236104e0565b610123610584565b61017161016c366004611037565b61058a565b60405161013091906111d6565b6101866105f7565b604051610130919061114a565b6101236101a13660046110fe565b61061b565b61014c61065c565b6101866106a7565b6101866106cb565b6101236101cc3660046110ac565b6106da565b61014c6101df366004611037565b610c83565b610186610ce4565b6101236101fa366004611051565b610cf3565b61021261020d3660046110fe565b610d10565b6040516101309695949392919061121a565b610123610d55565b61014c61023a366004611037565b610d5b565b6003602052816000526040600020818154811061025b57600080fd5b90600052602060002001600091509150505481565b600081815260046020819052604090912001544210156102ab5760405162461bcd60e51b81526004016102a2906112f1565b60405180910390fd5b6000818152600460205260409020600101546001600160a01b031633146102e45760405162461bcd60e51b81526004016102a29061144f565b60008181526004602052604090206005015460ff166103155760405162461bcd60e51b81526004016102a2906113b4565b60008181526004602090815260408083206005808201805460ff19166001179055600282015491546001600160a01b0316855283528184203385529092529091205461036191906115c5565b600082815260046020818152604080842080546001600160a01b03908116865260058452828620338088529085529286209690965593869052919052600282015491546103af931691610dcc565b6000818152600460205260408120600201546103ca9061061b565b6040516323b872dd60e01b81529091506001600160a01b037f000000000000000000000000000000000000000000000000000000000000000016906323b872dd9061043d9033907f0000000000000000000000000000000000000000000000000000000000000000908690600401611178565b602060405180830381600087803b15801561045757600080fd5b505af115801561046b573d6000803e3d6000fd5b505050506040513d601f19601f8201168201806040525081019061048f91906110de565b50600082815260046020526040908190206002015490517f884edad9ce6fa2440d8a54cc123490eb96d2768479d49ff9c7366125a9424364916104d49133919061119c565b60405180910390a15050565b6040516370a0823160e01b81526000906001600160a01b037f000000000000000000000000000000000000000000000000000000000000000016906370a082319061052f90309060040161114a565b60206040518083038186803b15801561054757600080fd5b505afa15801561055b573d6000803e3d6000fd5b505050506040513d601f19601f8201168201806040525081019061057f9190611116565b905090565b60015481565b6001600160a01b0381166000908152600360209081526040918290208054835181840281018401909452808452606093928301828280156105ea57602002820191906000526020600020905b8154815260200190600101908083116105d6575b505050505090505b919050565b7f000000000000000000000000000000000000000000000000000000000000000081565b600080821161063c5760405162461bcd60e51b81526004016102a290611486565b60646007548361064c91906115a6565b6106569190611586565b92915050565b610664610e27565b6001600160a01b03166106756106cb565b6001600160a01b03161461069b5760405162461bcd60e51b81526004016102a29061141a565b6106a56000610e2b565b565b7f000000000000000000000000000000000000000000000000000000000000000081565b6000546001600160a01b031690565b60008083116106fb5760405162461bcd60e51b81526004016102a2906114b4565b6402540be400821061071f5760405162461bcd60e51b81526004016102a2906112ba565b42821161073e5760405162461bcd60e51b81526004016102a290611283565b604051636eb1769f60e11b815283906001600160a01b037f0000000000000000000000000000000000000000000000000000000000000000169063dd62ed3e9061078e903390309060040161115e565b60206040518083038186803b1580156107a657600080fd5b505afa1580156107ba573d6000803e3d6000fd5b505050506040513d601f19601f820116820180604052508101906107de9190611116565b10156107fc5760405162461bcd60e51b81526004016102a2906113eb565b6040516370a0823160e01b81526000906001600160a01b037f000000000000000000000000000000000000000000000000000000000000000016906370a082319061084b90309060040161114a565b60206040518083038186803b15801561086357600080fd5b505afa158015610877573d6000803e3d6000fd5b505050506040513d601f19601f8201168201806040525081019061089b9190611116565b6040516323b872dd60e01b81529091506001600160a01b037f000000000000000000000000000000000000000000000000000000000000000016906323b872dd906108ee90339030908990600401611178565b602060405180830381600087803b15801561090857600080fd5b505af115801561091c573d6000803e3d6000fd5b505050506040513d601f19601f8201168201806040525081019061094091906110de565b506040516370a0823160e01b81526000906001600160a01b037f000000000000000000000000000000000000000000000000000000000000000016906370a082319061099090309060040161114a565b60206040518083038186803b1580156109a857600080fd5b505afa1580156109bc573d6000803e3d6000fd5b505050506040513d601f19601f820116820180604052508101906109e09190611116565b90506109ec82826115c5565b945060006109f98661061b565b6001600160a01b037f0000000000000000000000000000000000000000000000000000000000000000166000908152600560209081526040808320338452909152902054909150610a4b90879061156e565b6001600160a01b037f000000000000000000000000000000000000000000000000000000000000000016600090815260056020908152604080832033845290915281209190915560018054909190610aa29061160c565b9190508190559350866004600086815260200190815260200160002060010160006101000a8154816001600160a01b0302191690836001600160a01b0316021790555085600460008681526020019081526020016000206002018190555080600460008681526020019081526020016000206003018190555084600460008681526020019081526020016000206004018190555060006004600086815260200190815260200160002060050160006101000a81548160ff021916908315150217905550600260007f00000000000000000000000000000000000000000000000000000000000000006001600160a01b03166001600160a01b0316815260200190815260200160002084908060018154018082558091505060019003906000526020600020016000909190919091505560036000886001600160a01b03166001600160a01b031681526020019081526020016000208490806001815401808255809150506001900390600052602060002001600090919091909150557f49eaf4942f1237055eb4cfa5f31c9dfe50d5b4ade01e021f7de8be2fbbde557b7f00000000000000000000000000000000000000000000000000000000000000008786604051610c70939291906111b5565b60405180910390a15050505b9392505050565b610c8b610e27565b6001600160a01b0316610c9c6106cb565b6001600160a01b031614610cc25760405162461bcd60e51b81526004016102a29061141a565b600680546001600160a01b0319166001600160a01b0392909216919091179055565b6006546001600160a01b031681565b600560209081526000928352604080842090915290825290205481565b60046020819052600091825260409091208054600182015460028301546003840154948401546005909401546001600160a01b03938416959290931693909260ff1686565b60075481565b610d63610e27565b6001600160a01b0316610d746106cb565b6001600160a01b031614610d9a5760405162461bcd60e51b81526004016102a29061141a565b6001600160a01b038116610dc05760405162461bcd60e51b81526004016102a290611328565b610dc981610e2b565b50565b610e228363a9059cbb60e01b8484604051602401610deb92919061119c565b60408051601f198184030181529190526020810180516001600160e01b03166001600160e01b031990931692909217909152610e7b565b505050565b3390565b600080546001600160a01b038381166001600160a01b0319831681178455604051919092169283917f8be0079c531659141344cd1fd0a4f28419497f9722a3daafe3b4186f6b6457e09190a35050565b6000610ed0826040518060400160405280602081526020017f5361666545524332303a206c6f772d6c6576656c2063616c6c206661696c6564815250856001600160a01b0316610f0a9092919063ffffffff16565b805190915015610e225780806020019051810190610eee91906110de565b610e225760405162461bcd60e51b81526004016102a29061151b565b6060610f198484600085610f21565b949350505050565b606082471015610f435760405162461bcd60e51b81526004016102a29061136e565b610f4c85610fe1565b610f685760405162461bcd60e51b81526004016102a2906114e4565b600080866001600160a01b03168587604051610f84919061112e565b60006040518083038185875af1925050503d8060008114610fc1576040519150601f19603f3d011682016040523d82523d6000602084013e610fc6565b606091505b5091509150610fd6828286610fe7565b979650505050505050565b3b151590565b60608315610ff6575081610c7c565b8251156110065782518084602001fd5b8160405162461bcd60e51b81526004016102a29190611250565b80356001600160a01b03811681146105f257600080fd5b600060208284031215611048578081fd5b610c7c82611020565b60008060408385031215611063578081fd5b61106c83611020565b915061107a60208401611020565b90509250929050565b60008060408385031215611095578182fd5b61109e83611020565b946020939093013593505050565b6000806000606084860312156110c0578081fd5b6110c984611020565b95602085013595506040909401359392505050565b6000602082840312156110ef578081fd5b81518015158114610c7c578182fd5b60006020828403121561110f578081fd5b5035919050565b600060208284031215611127578081fd5b5051919050565b600082516111408184602087016115dc565b9190910192915050565b6001600160a01b0391909116815260200190565b6001600160a01b0392831681529116602082015260400190565b6001600160a01b039384168152919092166020820152604081019190915260600190565b6001600160a01b03929092168252602082015260400190565b6001600160a01b039390931683526020830191909152604082015260600190565b6020808252825182820181905260009190848201906040850190845b8181101561120e578351835292840192918401916001016111f2565b50909695505050505050565b6001600160a01b03968716815294909516602085015260408401929092526060830152608082015290151560a082015260c00190565b600060208252825180602084015261126f8160408501602087016115dc565b601f01601f19169190910160400192915050565b6020808252601c908201527f556e6c6f636b206973206e6f7420696e20746865206675747572652e00000000604082015260600190565b60208082526018908201527f556e6c6f636b206973206e6f7420696e207365636f6e642e0000000000000000604082015260600190565b60208082526018908201527f546f6b656e7320617265207374696c6c206c6f636b65642e0000000000000000604082015260600190565b60208082526026908201527f4f776e61626c653a206e6577206f776e657220697320746865207a65726f206160408201526564647265737360d01b606082015260800190565b60208082526026908201527f416464726573733a20696e73756666696369656e742062616c616e636520666f6040820152651c8818d85b1b60d21b606082015260800190565b6020808252601d908201527f546f6b656e732061726520616c72656164792077697468647261776e2e000000604082015260600190565b60208082526015908201527420b8383937bb32903a37b5b2b739903334b939ba1760591b604082015260600190565b6020808252818101527f4f776e61626c653a2063616c6c6572206973206e6f7420746865206f776e6572604082015260600190565b6020808252601a908201527f596f7520617265206e6f742074686520726563697069656e742e000000000000604082015260600190565b60208082526014908201527363616e6e6f742068617665207a65726f2066656560601b604082015260600190565b602080825260169082015275546f6b656e205f616d6f756e7420746f6f206c6f772160501b604082015260600190565b6020808252601d908201527f416464726573733a2063616c6c20746f206e6f6e2d636f6e7472616374000000604082015260600190565b6020808252602a908201527f5361666545524332303a204552433230206f7065726174696f6e20646964206e6040820152691bdd081cdd58d8d9595960b21b606082015260800190565b90815260200190565b6000821982111561158157611581611627565b500190565b6000826115a157634e487b7160e01b81526012600452602481fd5b500490565b60008160001904831182151516156115c0576115c0611627565b500290565b6000828210156115d7576115d7611627565b500390565b60005b838110156115f75781810151838201526020016115df565b83811115611606576000848401525b50505050565b600060001982141561162057611620611627565b5060010190565b634e487b7160e01b600052601160045260246000fdfea2646970667358221220bc7d69b721a658d4bc2b94f5ff370ae6df98b8f9e11b584058a225205575a53264736f6c63430008000033",
    "sourcePath": "/Users/unico/Documents/GitHub/SoulSwap/soulswap-farms/contracts/SoulScarab.sol",
    "compiler": {
        "name": "solc",
        "version": "0.8.0+commit.c7dfd78e"
    },
    "functionHashes": {
        "depositsByWithdrawer(address,uint256)": "23c4a921",
        "depositsCount()": "4506e935",
        "getDepositsByWithdrawer(address)": "469d86e2",
        "getSoulTotalLockedBalance()": "3bf59ece",
        "getTribute(uint256)": "6f8dfd09",
        "lockTokens(address,uint256,uint256)": "a25983e5",
        "lockedToken(uint256)": "bb941cff",
        "manifestor()": "b2f4a91f",
        "owner()": "8da5cb5b",
        "renounceOwnership()": "715018a6",
        "seance()": "4ca01d45",
        "setManifestor(address)": "a7953e5e",
        "soul()": "815b7a8c",
        "transferOwnership(address)": "f2fde38b",
        "tributeRate()": "cf616f40",
        "walletTokenBalance(address,address)": "b9e7df1c",
        "withdrawTokens(uint256)": "315a095d"
    },
    "gasEstimates": {
        "creation": {
            "codeDepositCost": "1149400",
            "executionCost": "infinite",
            "totalCost": "infinite"
        },
        "external": {
            "depositsByWithdrawer(address,uint256)": "2189",
            "depositsCount()": "1118",
            "getDepositsByWithdrawer(address)": "infinite",
            "getSoulTotalLockedBalance()": "infinite",
            "getTribute(uint256)": "1363",
            "lockTokens(address,uint256,uint256)": "infinite",
            "lockedToken(uint256)": "5492",
            "manifestor()": "1092",
            "owner()": "1115",
            "renounceOwnership()": "23593",
            "seance()": "infinite",
            "setManifestor(address)": "22190",
            "soul()": "infinite",
            "transferOwnership(address)": "23809",
            "tributeRate()": "1116",
            "walletTokenBalance(address,address)": "infinite",
            "withdrawTokens(uint256)": "infinite"
        }
    }
}