{
  "_format": "hh-sol-artifact-1",
  "contractName": "HybridPool",
  "sourceName": "contracts/pool/HybridPool.sol",
  "abi": [
    {
      "inputs": [
        {
          "internalType": "bytes",
          "name": "_deployData",
          "type": "bytes"
        },
        {
          "internalType": "address",
          "name": "_masterDeployer",
          "type": "address"
        }
      ],
      "stateMutability": "nonpayable",
      "type": "constructor"
    },
    {
      "anonymous": false,
      "inputs": [
        {
          "indexed": true,
          "internalType": "address",
          "name": "owner",
          "type": "address"
        },
        {
          "indexed": true,
          "internalType": "address",
          "name": "spender",
          "type": "address"
        },
        {
          "indexed": false,
          "internalType": "uint256",
          "name": "amount",
          "type": "uint256"
        }
      ],
      "name": "Approval",
      "type": "event"
    },
    {
      "anonymous": false,
      "inputs": [
        {
          "indexed": true,
          "internalType": "address",
          "name": "sender",
          "type": "address"
        },
        {
          "indexed": false,
          "internalType": "uint256",
          "name": "amount0",
          "type": "uint256"
        },
        {
          "indexed": false,
          "internalType": "uint256",
          "name": "amount1",
          "type": "uint256"
        },
        {
          "indexed": true,
          "internalType": "address",
          "name": "recipient",
          "type": "address"
        }
      ],
      "name": "Burn",
      "type": "event"
    },
    {
      "anonymous": false,
      "inputs": [
        {
          "indexed": true,
          "internalType": "address",
          "name": "sender",
          "type": "address"
        },
        {
          "indexed": false,
          "internalType": "uint256",
          "name": "amount0",
          "type": "uint256"
        },
        {
          "indexed": false,
          "internalType": "uint256",
          "name": "amount1",
          "type": "uint256"
        },
        {
          "indexed": true,
          "internalType": "address",
          "name": "recipient",
          "type": "address"
        }
      ],
      "name": "Mint",
      "type": "event"
    },
    {
      "anonymous": false,
      "inputs": [
        {
          "indexed": true,
          "internalType": "address",
          "name": "recipient",
          "type": "address"
        },
        {
          "indexed": true,
          "internalType": "address",
          "name": "tokenIn",
          "type": "address"
        },
        {
          "indexed": true,
          "internalType": "address",
          "name": "tokenOut",
          "type": "address"
        },
        {
          "indexed": false,
          "internalType": "uint256",
          "name": "amountIn",
          "type": "uint256"
        },
        {
          "indexed": false,
          "internalType": "uint256",
          "name": "amountOut",
          "type": "uint256"
        }
      ],
      "name": "Swap",
      "type": "event"
    },
    {
      "anonymous": false,
      "inputs": [
        {
          "indexed": false,
          "internalType": "uint256",
          "name": "reserve0",
          "type": "uint256"
        },
        {
          "indexed": false,
          "internalType": "uint256",
          "name": "reserve1",
          "type": "uint256"
        }
      ],
      "name": "Sync",
      "type": "event"
    },
    {
      "anonymous": false,
      "inputs": [
        {
          "indexed": true,
          "internalType": "address",
          "name": "sender",
          "type": "address"
        },
        {
          "indexed": true,
          "internalType": "address",
          "name": "recipient",
          "type": "address"
        },
        {
          "indexed": false,
          "internalType": "uint256",
          "name": "amount",
          "type": "uint256"
        }
      ],
      "name": "Transfer",
      "type": "event"
    },
    {
      "inputs": [],
      "name": "A",
      "outputs": [
        {
          "internalType": "uint256",
          "name": "",
          "type": "uint256"
        }
      ],
      "stateMutability": "view",
      "type": "function"
    },
    {
      "inputs": [],
      "name": "DOMAIN_SEPARATOR",
      "outputs": [
        {
          "internalType": "bytes32",
          "name": "domainSeperator",
          "type": "bytes32"
        }
      ],
      "stateMutability": "view",
      "type": "function"
    },
    {
      "inputs": [],
      "name": "PERMIT_TYPEHASH",
      "outputs": [
        {
          "internalType": "bytes32",
          "name": "",
          "type": "bytes32"
        }
      ],
      "stateMutability": "view",
      "type": "function"
    },
    {
      "inputs": [
        {
          "internalType": "address",
          "name": "",
          "type": "address"
        },
        {
          "internalType": "address",
          "name": "",
          "type": "address"
        }
      ],
      "name": "allowance",
      "outputs": [
        {
          "internalType": "uint256",
          "name": "",
          "type": "uint256"
        }
      ],
      "stateMutability": "view",
      "type": "function"
    },
    {
      "inputs": [
        {
          "internalType": "address",
          "name": "spender",
          "type": "address"
        },
        {
          "internalType": "uint256",
          "name": "amount",
          "type": "uint256"
        }
      ],
      "name": "approve",
      "outputs": [
        {
          "internalType": "bool",
          "name": "",
          "type": "bool"
        }
      ],
      "stateMutability": "nonpayable",
      "type": "function"
    },
    {
      "inputs": [
        {
          "internalType": "address",
          "name": "",
          "type": "address"
        }
      ],
      "name": "balanceOf",
      "outputs": [
        {
          "internalType": "uint256",
          "name": "",
          "type": "uint256"
        }
      ],
      "stateMutability": "view",
      "type": "function"
    },
    {
      "inputs": [],
      "name": "barFee",
      "outputs": [
        {
          "internalType": "uint256",
          "name": "",
          "type": "uint256"
        }
      ],
      "stateMutability": "view",
      "type": "function"
    },
    {
      "inputs": [],
      "name": "barFeeTo",
      "outputs": [
        {
          "internalType": "address",
          "name": "",
          "type": "address"
        }
      ],
      "stateMutability": "view",
      "type": "function"
    },
    {
      "inputs": [],
      "name": "bento",
      "outputs": [
        {
          "internalType": "contract IBentoBoxMinimal",
          "name": "",
          "type": "address"
        }
      ],
      "stateMutability": "view",
      "type": "function"
    },
    {
      "inputs": [
        {
          "internalType": "bytes",
          "name": "data",
          "type": "bytes"
        }
      ],
      "name": "burn",
      "outputs": [
        {
          "components": [
            {
              "internalType": "address",
              "name": "token",
              "type": "address"
            },
            {
              "internalType": "uint256",
              "name": "amount",
              "type": "uint256"
            }
          ],
          "internalType": "struct IPool.TokenAmount[]",
          "name": "withdrawnAmounts",
          "type": "tuple[]"
        }
      ],
      "stateMutability": "nonpayable",
      "type": "function"
    },
    {
      "inputs": [
        {
          "internalType": "bytes",
          "name": "data",
          "type": "bytes"
        }
      ],
      "name": "burnSingle",
      "outputs": [
        {
          "internalType": "uint256",
          "name": "amountOut",
          "type": "uint256"
        }
      ],
      "stateMutability": "nonpayable",
      "type": "function"
    },
    {
      "inputs": [],
      "name": "decimals",
      "outputs": [
        {
          "internalType": "uint8",
          "name": "",
          "type": "uint8"
        }
      ],
      "stateMutability": "view",
      "type": "function"
    },
    {
      "inputs": [
        {
          "internalType": "bytes",
          "name": "data",
          "type": "bytes"
        }
      ],
      "name": "flashSwap",
      "outputs": [
        {
          "internalType": "uint256",
          "name": "amountOut",
          "type": "uint256"
        }
      ],
      "stateMutability": "nonpayable",
      "type": "function"
    },
    {
      "inputs": [
        {
          "internalType": "bytes",
          "name": "data",
          "type": "bytes"
        }
      ],
      "name": "getAmountOut",
      "outputs": [
        {
          "internalType": "uint256",
          "name": "finalAmountOut",
          "type": "uint256"
        }
      ],
      "stateMutability": "view",
      "type": "function"
    },
    {
      "inputs": [],
      "name": "getAssets",
      "outputs": [
        {
          "internalType": "address[]",
          "name": "assets",
          "type": "address[]"
        }
      ],
      "stateMutability": "view",
      "type": "function"
    },
    {
      "inputs": [],
      "name": "getReserves",
      "outputs": [
        {
          "internalType": "uint256",
          "name": "_reserve0",
          "type": "uint256"
        },
        {
          "internalType": "uint256",
          "name": "_reserve1",
          "type": "uint256"
        }
      ],
      "stateMutability": "view",
      "type": "function"
    },
    {
      "inputs": [],
      "name": "getVirtualPrice",
      "outputs": [
        {
          "internalType": "uint256",
          "name": "virtualPrice",
          "type": "uint256"
        }
      ],
      "stateMutability": "view",
      "type": "function"
    },
    {
      "inputs": [],
      "name": "masterDeployer",
      "outputs": [
        {
          "internalType": "contract IMasterDeployer",
          "name": "",
          "type": "address"
        }
      ],
      "stateMutability": "view",
      "type": "function"
    },
    {
      "inputs": [
        {
          "internalType": "bytes",
          "name": "data",
          "type": "bytes"
        }
      ],
      "name": "mint",
      "outputs": [
        {
          "internalType": "uint256",
          "name": "liquidity",
          "type": "uint256"
        }
      ],
      "stateMutability": "nonpayable",
      "type": "function"
    },
    {
      "inputs": [],
      "name": "name",
      "outputs": [
        {
          "internalType": "string",
          "name": "",
          "type": "string"
        }
      ],
      "stateMutability": "view",
      "type": "function"
    },
    {
      "inputs": [
        {
          "internalType": "address",
          "name": "",
          "type": "address"
        }
      ],
      "name": "nonces",
      "outputs": [
        {
          "internalType": "uint256",
          "name": "",
          "type": "uint256"
        }
      ],
      "stateMutability": "view",
      "type": "function"
    },
    {
      "inputs": [
        {
          "internalType": "address",
          "name": "owner",
          "type": "address"
        },
        {
          "internalType": "address",
          "name": "spender",
          "type": "address"
        },
        {
          "internalType": "uint256",
          "name": "amount",
          "type": "uint256"
        },
        {
          "internalType": "uint256",
          "name": "deadline",
          "type": "uint256"
        },
        {
          "internalType": "uint8",
          "name": "v",
          "type": "uint8"
        },
        {
          "internalType": "bytes32",
          "name": "r",
          "type": "bytes32"
        },
        {
          "internalType": "bytes32",
          "name": "s",
          "type": "bytes32"
        }
      ],
      "name": "permit",
      "outputs": [],
      "stateMutability": "nonpayable",
      "type": "function"
    },
    {
      "inputs": [],
      "name": "poolIdentifier",
      "outputs": [
        {
          "internalType": "bytes32",
          "name": "",
          "type": "bytes32"
        }
      ],
      "stateMutability": "view",
      "type": "function"
    },
    {
      "inputs": [
        {
          "internalType": "bytes",
          "name": "data",
          "type": "bytes"
        }
      ],
      "name": "swap",
      "outputs": [
        {
          "internalType": "uint256",
          "name": "amountOut",
          "type": "uint256"
        }
      ],
      "stateMutability": "nonpayable",
      "type": "function"
    },
    {
      "inputs": [],
      "name": "swapFee",
      "outputs": [
        {
          "internalType": "uint256",
          "name": "",
          "type": "uint256"
        }
      ],
      "stateMutability": "view",
      "type": "function"
    },
    {
      "inputs": [],
      "name": "symbol",
      "outputs": [
        {
          "internalType": "string",
          "name": "",
          "type": "string"
        }
      ],
      "stateMutability": "view",
      "type": "function"
    },
    {
      "inputs": [],
      "name": "token0",
      "outputs": [
        {
          "internalType": "address",
          "name": "",
          "type": "address"
        }
      ],
      "stateMutability": "view",
      "type": "function"
    },
    {
      "inputs": [],
      "name": "token0PrecisionMultiplier",
      "outputs": [
        {
          "internalType": "uint256",
          "name": "",
          "type": "uint256"
        }
      ],
      "stateMutability": "view",
      "type": "function"
    },
    {
      "inputs": [],
      "name": "token1",
      "outputs": [
        {
          "internalType": "address",
          "name": "",
          "type": "address"
        }
      ],
      "stateMutability": "view",
      "type": "function"
    },
    {
      "inputs": [],
      "name": "token1PrecisionMultiplier",
      "outputs": [
        {
          "internalType": "uint256",
          "name": "",
          "type": "uint256"
        }
      ],
      "stateMutability": "view",
      "type": "function"
    },
    {
      "inputs": [],
      "name": "totalSupply",
      "outputs": [
        {
          "internalType": "uint256",
          "name": "",
          "type": "uint256"
        }
      ],
      "stateMutability": "view",
      "type": "function"
    },
    {
      "inputs": [
        {
          "internalType": "address",
          "name": "recipient",
          "type": "address"
        },
        {
          "internalType": "uint256",
          "name": "amount",
          "type": "uint256"
        }
      ],
      "name": "transfer",
      "outputs": [
        {
          "internalType": "bool",
          "name": "",
          "type": "bool"
        }
      ],
      "stateMutability": "nonpayable",
      "type": "function"
    },
    {
      "inputs": [
        {
          "internalType": "address",
          "name": "sender",
          "type": "address"
        },
        {
          "internalType": "address",
          "name": "recipient",
          "type": "address"
        },
        {
          "internalType": "uint256",
          "name": "amount",
          "type": "uint256"
        }
      ],
      "name": "transferFrom",
      "outputs": [
        {
          "internalType": "bool",
          "name": "",
          "type": "bool"
        }
      ],
      "stateMutability": "nonpayable",
      "type": "function"
    },
    {
      "inputs": [],
      "name": "updateBarFee",
      "outputs": [],
      "stateMutability": "nonpayable",
      "type": "function"
    }
  ],
  "bytecode": "0x6102006040523480156200001257600080fd5b506040516200500638038062005006833981016040819052620000359162000610565b4660805262000112604080518082018252600e81526d29bab9b434902628102a37b5b2b760911b6020918201528151808301835260018152603160f81b9082015281517f8b73c3c69bb8fe3d512ecc4cf759cc79239f7b179b0ffacaa9a75d522b39400f818301527fc2bf45081e840722410522aa366600d7fe4da5bfb5a5b417f4d5125b4ed180a4818401527fc89efdaa54c0f20c7adf612882df0950f5a951637e0307cdcb4c672f298b8bc660608201524660808201523060a0808301919091528351808303909101815260c0909101909252815191012090565b60a0818152505060008060008085806020019051810190620001359190620005c3565b929650909450925090506001600160a01b0384166200018a5760405162461bcd60e51b815260206004820152600c60248201526b5a45524f5f4144445245535360a01b60448201526064015b60405180910390fd5b826001600160a01b0316846001600160a01b03161415620001ee5760405162461bcd60e51b815260206004820152601360248201527f4944454e544943414c5f41444452455353455300000000000000000000000000604482015260640162000181565b612710821115620002355760405162461bcd60e51b815260206004820152601060248201526f494e56414c49445f535741505f46454560801b604482015260640162000181565b806200026d5760405162461bcd60e51b81526020600482015260066024820152655a45524f5f4160d01b604482015260640162000181565b6001600160601b0319606085811b82166101405284901b166101605260c0829052604080516360a56c0160e11b815290516001600160a01b0387169163c14ad802916004808301926020929190829003018186803b158015620002cf57600080fd5b505afa158015620002e4573d6000803e3d6000fd5b505050506040513d601f19601f820116820180604052508101906200030a919062000701565b600481905550846001600160a01b0316630c0a0cd26040518163ffffffff1660e01b815260040160206040518083038186803b1580156200034a57600080fd5b505afa1580156200035f573d6000803e3d6000fd5b505050506040513d601f19601f820116820180604052508101906200038591906200059c565b6001600160a01b0316610120816001600160a01b031660601b81525050846001600160a01b0316634da318276040518163ffffffff1660e01b815260040160206040518083038186803b158015620003dc57600080fd5b505afa158015620003f1573d6000803e3d6000fd5b505050506040513d601f19601f820116820180604052508101906200041791906200059c565b6001600160601b0319606091821b811660e0529086901b1661010052610180819052620004468160026200084a565b6101a08181525050836001600160a01b031663313ce5676040518163ffffffff1660e01b815260040160206040518083038186803b1580156200048857600080fd5b505afa1580156200049d573d6000803e3d6000fd5b505050506040513d601f19601f82011682018060405250810190620004c391906200071b565b620004d09060126200086c565b620004dd90600a62000789565b6101c08181525050826001600160a01b031663313ce5676040518163ffffffff1660e01b815260040160206040518083038186803b1580156200051f57600080fd5b505afa15801562000534573d6000803e3d6000fd5b505050506040513d601f19601f820116820180604052508101906200055a91906200071b565b620005679060126200086c565b6200057490600a62000789565b6101e0525050600160075550620008d792505050565b80516200059781620008be565b919050565b600060208284031215620005af57600080fd5b8151620005bc81620008be565b9392505050565b60008060008060808587031215620005da57600080fd5b8451620005e781620008be565b6020860151909450620005fa81620008be565b6040860151606090960151949790965092505050565b600080604083850312156200062457600080fd5b82516001600160401b03808211156200063c57600080fd5b818501915085601f8301126200065157600080fd5b815181811115620006665762000666620008a8565b604051601f8201601f19908116603f01168101908382118183101715620006915762000691620008a8565b81604052828152602093508884848701011115620006ae57600080fd5b600091505b82821015620006d25784820184015181830185015290830190620006b3565b82821115620006e45760008484830101525b9550620006f69150508582016200058a565b925050509250929050565b6000602082840312156200071457600080fd5b5051919050565b6000602082840312156200072e57600080fd5b815160ff81168114620005bc57600080fd5b600181815b808511156200078157816000190482111562000765576200076562000892565b808516156200077357918102915b93841c939080029062000745565b509250929050565b6000620005bc60ff841683600082620007a55750600162000844565b81620007b45750600062000844565b8160018114620007cd5760028114620007d857620007f8565b600191505062000844565b60ff841115620007ec57620007ec62000892565b50506001821b62000844565b5060208310610133831016604e8410600b84101617156200081d575081810a62000844565b62000829838362000740565b806000190482111562000840576200084062000892565b0290505b92915050565b600081600019048311821515161562000867576200086762000892565b500290565b600060ff821660ff84168082101562000889576200088962000892565b90039392505050565b634e487b7160e01b600052601160045260246000fd5b634e487b7160e01b600052604160045260246000fd5b6001600160a01b0381168114620008d457600080fd5b50565b60805160a05160c05160e05160601c6101005160601c6101205160601c6101405160601c6101605160601c610180516101a0516101c0516101e0516144b262000b54600039600081816103fe015281816129df01528181612a7901528181612ab2015261337101526000818161056d015281816129bc01528181612a3e01528181612aed015261334e01526000818161399b015281816139f101528181613a9c0152613ae6015260006106310152600081816105c4015281816107c00152818161087401528181610ab501528181610ba601528181610ce0015281816112690152818161134d0152818161167b015281816116b0015281816118d901528181611e46015281816121cd0152818161224f015281816128fc01528181612e9c015281816134fc01526136ca01526000818161032b015281816106fa0152818161078a015281816108c401528181610bdc01528181610c900152818161123d015281816112e4015281816116220152818161176a0152818161186b01528181611db601528181611f5f0152818161228401528181612367015281816127e201528181612d01015281816133e501526135e60152600081816102df015261301b01526000818161059d0152611c1d0152600081816103d7015281816107e20152818161090b01528181610bfe01528181610d2701528181611d3601528181611e0a01528181611f23015281816128430152818161293501528181612d3501528181612ece0152818161315101528181613226015281816134430152818161352d0152818161361401526136f801526000818161042501528181612a050152818161380601526138710152600061155c0152600061143301526144b26000f3fe608060405234801561001057600080fd5b50600436106102265760003560e01c806370a082311161012a578063af8c09bf116100bd578063d21220a71161008c578063dd62ed3e11610071578063dd62ed3e146105f9578063e25aa5fa14610624578063f446c1d01461062c57600080fd5b8063d21220a7146105bf578063d505accf146105e657600080fd5b8063af8c09bf14610555578063baa8c7cb14610568578063c14ad8021461058f578063cf58879a1461059857600080fd5b806395d89b41116100f957806395d89b41146104cc578063a69840a814610508578063a8f1f52e1461052f578063a9059cbb1461054257600080fd5b806370a082311461046f5780637ba0e2e71461048f5780637ecebe00146104a257806392bc3219146104c257600080fd5b80632a07b6c7116101bd5780634da318271161018c57806354cf2aeb1161017157806354cf2aeb14610420578063627dd56a1461044757806367e4ac2c1461045a57600080fd5b80634da31827146103d25780634e25dc47146103f957600080fd5b80632a07b6c71461036957806330adf81f14610389578063313ce567146103b05780633644e515146103ca57600080fd5b80630c0a0cd2116101f95780630c0a0cd2146102da5780630dfe16811461032657806318160ddd1461034d57806323b872dd1461035657600080fd5b8063053da1c81461022b57806306fdde03146102515780630902f1ac1461029a578063095ea7b3146102b7575b600080fd5b61023e610239366004613f03565b610653565b6040519081526020015b60405180910390f35b61028d6040518060400160405280600e81526020017f5375736869204c5020546f6b656e00000000000000000000000000000000000081525081565b6040516102489190614137565b6102a2610f6e565b60408051928352602083019190915201610248565b6102ca6102c5366004613de6565b610f82565b6040519015158152602001610248565b6103017f000000000000000000000000000000000000000000000000000000000000000081565b60405173ffffffffffffffffffffffffffffffffffffffff9091168152602001610248565b6103017f000000000000000000000000000000000000000000000000000000000000000081565b61023e60005481565b6102ca610364366004613e4b565b610ffc565b61037c610377366004613f03565b611148565b60405161024891906140d2565b61023e7f6e71edae12b1b97f4d1f60370fef10105fa2faae0126114a169c64845d6126c981565b6103b8601281565b60405160ff9091168152602001610248565b61023e61142f565b6103017f000000000000000000000000000000000000000000000000000000000000000081565b61023e7f000000000000000000000000000000000000000000000000000000000000000081565b61023e7f000000000000000000000000000000000000000000000000000000000000000081565b61023e610455366004613f03565b61157e565b610462611849565b6040516102489190614078565b61023e61047d366004613c5a565b60016020526000908152604090205481565b61023e61049d366004613f03565b611948565b61023e6104b0366004613c5a565b60036020526000908152604090205481565b6104ca611c1b565b005b61028d6040518060400160405280600381526020017f534c50000000000000000000000000000000000000000000000000000000000081525081565b61023e7f54726964656e743a487962726964506f6f6c000000000000000000000000000081565b61023e61053d366004613f03565b611cbe565b6102ca610550366004613de6565b612040565b61023e610563366004613f03565b6120c5565b61023e7f000000000000000000000000000000000000000000000000000000000000000081565b61023e60045481565b6103017f000000000000000000000000000000000000000000000000000000000000000081565b6103017f000000000000000000000000000000000000000000000000000000000000000081565b6104ca6105f4366004613e8c565b612405565b61023e610607366004613e12565b600260209081526000928352604080842090915290825290205481565b61023e612757565b61023e7f000000000000000000000000000000000000000000000000000000000000000081565b60006007546001146106c6576040517f08c379a000000000000000000000000000000000000000000000000000000000815260206004820152600660248201527f4c4f434b4544000000000000000000000000000000000000000000000000000060448201526064015b60405180910390fd5b60026007556000808080806106dd87890189613cbe565b945094509450945094506000806106f26127a2565b9150915060007f000000000000000000000000000000000000000000000000000000000000000073ffffffffffffffffffffffffffffffffffffffff168873ffffffffffffffffffffffffffffffffffffffff161415610ab357506040517f5662311800000000000000000000000000000000000000000000000000000000815273ffffffffffffffffffffffffffffffffffffffff7f00000000000000000000000000000000000000000000000000000000000000008116600483015260248201869052600060448301527f0000000000000000000000000000000000000000000000000000000000000000917f00000000000000000000000000000000000000000000000000000000000000009091169063566231189060640160206040518083038186803b15801561082657600080fd5b505afa15801561083a573d6000803e3d6000fd5b505050506040513d601f19601f8201168201806040525081019061085e9190613fd0565b945061086d85848460016129b8565b985061089c7f0000000000000000000000000000000000000000000000000000000000000000888b878a612b2c565b6040517ff7888aec0000000000000000000000000000000000000000000000000000000081527f000000000000000000000000000000000000000000000000000000000000000073ffffffffffffffffffffffffffffffffffffffff81811660048401523060248401526000927f00000000000000000000000000000000000000000000000000000000000000009190911691635662311891839063f7888aec9060440160206040518083038186803b15801561095857600080fd5b505afa15801561096c573d6000803e3d6000fd5b505050506040513d601f19601f820116820180604052508101906109909190613fd0565b6040517fffffffff0000000000000000000000000000000000000000000000000000000060e085901b16815273ffffffffffffffffffffffffffffffffffffffff909216600483015260248201526000604482015260640160206040518083038186803b158015610a0057600080fd5b505afa158015610a14573d6000803e3d6000fd5b505050506040513d601f19601f82011682018060405250810190610a389190613fd0565b905085610a45858361434b565b1015610aad576040517f08c379a000000000000000000000000000000000000000000000000000000000815260206004820152601660248201527f494e53554646494349454e545f414d4f554e545f494e0000000000000000000060448201526064016106bd565b50610ecb565b7f000000000000000000000000000000000000000000000000000000000000000073ffffffffffffffffffffffffffffffffffffffff168873ffffffffffffffffffffffffffffffffffffffff1614610b68576040517f08c379a000000000000000000000000000000000000000000000000000000000815260206004820152601360248201527f494e56414c49445f494e5055545f544f4b454e0000000000000000000000000060448201526064016106bd565b506040517f5662311800000000000000000000000000000000000000000000000000000000815273ffffffffffffffffffffffffffffffffffffffff7f00000000000000000000000000000000000000000000000000000000000000008116600483015260248201869052600060448301527f0000000000000000000000000000000000000000000000000000000000000000917f00000000000000000000000000000000000000000000000000000000000000009091169063566231189060640160206040518083038186803b158015610c4257600080fd5b505afa158015610c56573d6000803e3d6000fd5b505050506040513d601f19601f82011682018060405250810190610c7a9190613fd0565b9450610c8985848460006129b8565b9850610cb87f0000000000000000000000000000000000000000000000000000000000000000888b878a612b2c565b6040517ff7888aec0000000000000000000000000000000000000000000000000000000081527f000000000000000000000000000000000000000000000000000000000000000073ffffffffffffffffffffffffffffffffffffffff81811660048401523060248401526000927f00000000000000000000000000000000000000000000000000000000000000009190911691635662311891839063f7888aec9060440160206040518083038186803b158015610d7457600080fd5b505afa158015610d88573d6000803e3d6000fd5b505050506040513d601f19601f82011682018060405250810190610dac9190613fd0565b6040517fffffffff0000000000000000000000000000000000000000000000000000000060e085901b16815273ffffffffffffffffffffffffffffffffffffffff909216600483015260248201526000604482015260640160206040518083038186803b158015610e1c57600080fd5b505afa158015610e30573d6000803e3d6000fd5b505050506040513d601f19601f82011682018060405250810190610e549190613fd0565b905085610e61848361434b565b1015610ec9576040517f08c379a000000000000000000000000000000000000000000000000000000000815260206004820152601660248201527f494e53554646494349454e545f414d4f554e545f494e0000000000000000000060448201526064016106bd565b505b610ed3612bb5565b8073ffffffffffffffffffffffffffffffffffffffff168873ffffffffffffffffffffffffffffffffffffffff168873ffffffffffffffffffffffffffffffffffffffff167fcd3829a3813dc3cdd188fd3d01dcf3268c16be2fdd2dd21d0665418816e46062888d604051610f52929190918252602082015260400190565b60405180910390a4505060016007555094979650505050505050565b600080610f796127a2565b90939092509050565b33600081815260026020908152604080832073ffffffffffffffffffffffffffffffffffffffff8716808552925280832085905551919290917f8c5be1e5ebec7d5bd14f71427d1e84f3dd0314c0f7b2291e5b200ac8c7c3b92590610fea9086815260200190565b60405180910390a35060015b92915050565b73ffffffffffffffffffffffffffffffffffffffff831660009081526002602090815260408083203384529091528120547fffffffffffffffffffffffffffffffffffffffffffffffffffffffffffffffff146110995773ffffffffffffffffffffffffffffffffffffffff841660009081526002602090815260408083203384529091528120805484929061109390849061434b565b90915550505b73ffffffffffffffffffffffffffffffffffffffff8416600090815260016020526040812080548492906110ce90849061434b565b909155505073ffffffffffffffffffffffffffffffffffffffff808416600081815260016020526040908190208054860190555190918616907fddf252ad1be2c89b69c2b068fc378daa952ba7f163c4a11628f55a4df523b3ef906111369086815260200190565b60405180910390a35060019392505050565b60606007546001146111b6576040517f08c379a000000000000000000000000000000000000000000000000000000000815260206004820152600660248201527f4c4f434b4544000000000000000000000000000000000000000000000000000060448201526064016106bd565b60026007556000806111ca84860186613db1565b915091506000806111d9612cc4565b306000908152600160205260408120549294509092506111f98484612fad565b509050600081611209868561430e565b61121391906141b1565b9050600082611222868661430e565b61122c91906141b1565b90506112383085613057565b6112647f0000000000000000000000000000000000000000000000000000000000000000838a8a6130ea565b6112907f0000000000000000000000000000000000000000000000000000000000000000828a8a6130ea565b611298612bb5565b6040805160028082526060820190925290816020015b60408051808201909152600080825260208201528152602001906001900390816112ae57905050985060405180604001604052807f000000000000000000000000000000000000000000000000000000000000000073ffffffffffffffffffffffffffffffffffffffff1681526020018381525089600081518110611335576113356143f9565b602002602001018190525060405180604001604052807f000000000000000000000000000000000000000000000000000000000000000073ffffffffffffffffffffffffffffffffffffffff168152602001828152508960018151811061139e5761139e6143f9565b60209081029190910101526113c56113b6838861434b565b6113c0838861434b565b61334a565b600655604080518381526020810183905273ffffffffffffffffffffffffffffffffffffffff8a169133917fdccd412f0b1252819cb1fd330b93224ca42612892bb3f4f789976e6d81936496910160405180910390a3505060016007555094979650505050505050565b60007f000000000000000000000000000000000000000000000000000000000000000046146115595750604080518082018252600e81527f5375736869204c5020546f6b656e00000000000000000000000000000000000060209182015281518083018352600181527f31000000000000000000000000000000000000000000000000000000000000009082015281517f8b73c3c69bb8fe3d512ecc4cf759cc79239f7b179b0ffacaa9a75d522b39400f818301527fc2bf45081e840722410522aa366600d7fe4da5bfb5a5b417f4d5125b4ed180a4818401527fc89efdaa54c0f20c7adf612882df0950f5a951637e0307cdcb4c672f298b8bc660608201524660808201523060a0808301919091528351808303909101815260c0909101909252815191012090565b507f000000000000000000000000000000000000000000000000000000000000000090565b60006007546001146115ec576040517f08c379a000000000000000000000000000000000000000000000000000000000815260206004820152600660248201527f4c4f434b4544000000000000000000000000000000000000000000000000000060448201526064016106bd565b60026007556000808061160185870187613c77565b9250925092506000806000806116156133a5565b93509350935093506000807f000000000000000000000000000000000000000000000000000000000000000073ffffffffffffffffffffffffffffffffffffffff168973ffffffffffffffffffffffffffffffffffffffff1614156116ae5750508382037f00000000000000000000000000000000000000000000000000000000000000006116a782878760016129b8565b9950611799565b7f000000000000000000000000000000000000000000000000000000000000000073ffffffffffffffffffffffffffffffffffffffff168973ffffffffffffffffffffffffffffffffffffffff1614611763576040517f08c379a000000000000000000000000000000000000000000000000000000000815260206004820152601360248201527f494e56414c49445f494e5055545f544f4b454e0000000000000000000000000060448201526064016106bd565b50508281037f000000000000000000000000000000000000000000000000000000000000000061179682878760006129b8565b99505b6117a5818b8a8a6130ea565b6117ad612bb5565b8073ffffffffffffffffffffffffffffffffffffffff168973ffffffffffffffffffffffffffffffffffffffff168973ffffffffffffffffffffffffffffffffffffffff167fcd3829a3813dc3cdd188fd3d01dcf3268c16be2fdd2dd21d0665418816e46062858e60405161182c929190918252602082015260400190565b60405180910390a450506001600755509598975050505050505050565b60408051600280825260608083018452926020830190803683370190505090507f00000000000000000000000000000000000000000000000000000000000000008160008151811061189d5761189d6143f9565b602002602001019073ffffffffffffffffffffffffffffffffffffffff16908173ffffffffffffffffffffffffffffffffffffffff16815250507f00000000000000000000000000000000000000000000000000000000000000008160018151811061190b5761190b6143f9565b602002602001019073ffffffffffffffffffffffffffffffffffffffff16908173ffffffffffffffffffffffffffffffffffffffff168152505090565b60006007546001146119b6576040517f08c379a000000000000000000000000000000000000000000000000000000000815260206004820152600660248201527f4c4f434b4544000000000000000000000000000000000000000000000000000060448201526064016106bd565b600260075560006119c983850185613c5a565b90506000806119d66127a2565b915091506000806119e5612cc4565b9150915060006119f5838361334a565b90506000611a03868561434b565b90506000611a11868561434b565b9050600080611a2284848b8b6137ab565b9092509050611a416dffffffffffffffffffffffffffff83168a614199565b9850611a5d6dffffffffffffffffffffffffffff821689614199565b9750600080611a6c8b8b612fad565b915091508160001415611b0f57600086118015611a895750600085115b611aef576040517f08c379a000000000000000000000000000000000000000000000000000000000815260206004820152600f60248201527f494e56414c49445f414d4f554e5453000000000000000000000000000000000060448201526064016106bd565b611afb6103e88861434b565b9c50611b0a60006103e86138ae565b611b32565b8082611b1b828a61434b565b611b25919061430e565b611b2f91906141b1565b9c505b8c611b99576040517f08c379a000000000000000000000000000000000000000000000000000000000815260206004820152601d60248201527f494e53554646494349454e545f4c49515549444954595f4d494e54454400000060448201526064016106bd565b611ba38c8e6138ae565b611bab612bb5565b6006879055604080518781526020810187905273ffffffffffffffffffffffffffffffffffffffff8e169133917fdbba30eb0402b389513e87f51f4db2db80bed454384ec6925a24097c3548a02a910160405180910390a35050600160075550989b9a5050505050505050505050565b7f000000000000000000000000000000000000000000000000000000000000000073ffffffffffffffffffffffffffffffffffffffff1663c14ad8026040518163ffffffff1660e01b815260040160206040518083038186803b158015611c8157600080fd5b505afa158015611c95573d6000803e3d6000fd5b505050506040513d601f19601f82011682018060405250810190611cb99190613fd0565b600455565b60008080611cce84860186613de6565b91509150600080611cdd6127a2565b6040517f5662311800000000000000000000000000000000000000000000000000000000815273ffffffffffffffffffffffffffffffffffffffff878116600483015260248201879052600060448301529294509092507f00000000000000000000000000000000000000000000000000000000000000009091169063566231189060640160206040518083038186803b158015611d7a57600080fd5b505afa158015611d8e573d6000803e3d6000fd5b505050506040513d601f19601f82011682018060405250810190611db29190613fd0565b92507f000000000000000000000000000000000000000000000000000000000000000073ffffffffffffffffffffffffffffffffffffffff168473ffffffffffffffffffffffffffffffffffffffff161415611f21577f000000000000000000000000000000000000000000000000000000000000000073ffffffffffffffffffffffffffffffffffffffff1663da5139ca7f0000000000000000000000000000000000000000000000000000000000000000611e7286868660016129b8565b6040517fffffffff0000000000000000000000000000000000000000000000000000000060e085901b16815273ffffffffffffffffffffffffffffffffffffffff909216600483015260248201526000604482015260640160206040518083038186803b158015611ee257600080fd5b505afa158015611ef6573d6000803e3d6000fd5b505050506040513d601f19601f82011682018060405250810190611f1a9190613fd0565b9450612036565b7f000000000000000000000000000000000000000000000000000000000000000073ffffffffffffffffffffffffffffffffffffffff1663da5139ca7f0000000000000000000000000000000000000000000000000000000000000000611f8b86868660006129b8565b6040517fffffffff0000000000000000000000000000000000000000000000000000000060e085901b16815273ffffffffffffffffffffffffffffffffffffffff909216600483015260248201526000604482015260640160206040518083038186803b158015611ffb57600080fd5b505afa15801561200f573d6000803e3d6000fd5b505050506040513d601f19601f820116820180604052508101906120339190613fd0565b94505b5050505092915050565b3360009081526001602052604081208054839190839061206190849061434b565b909155505073ffffffffffffffffffffffffffffffffffffffff8316600081815260016020526040908190208054850190555133907fddf252ad1be2c89b69c2b068fc378daa952ba7f163c4a11628f55a4df523b3ef90610fea9086815260200190565b6000600754600114612133576040517f08c379a000000000000000000000000000000000000000000000000000000000815260206004820152600660248201527f4c4f434b4544000000000000000000000000000000000000000000000000000060448201526064016106bd565b60026007556000808061214885870187613c77565b925092509250600080612159612cc4565b306000908152600160205260408120549294509092506121798484612fad565b509050600081612189868561430e565b61219391906141b1565b90506000826121a2868661430e565b6121ac91906141b1565b90506121b83085613057565b6121c56113b6838861434b565b6006819055507f000000000000000000000000000000000000000000000000000000000000000073ffffffffffffffffffffffffffffffffffffffff168973ffffffffffffffffffffffffffffffffffffffff1614156122825761223e8261222d818961434b565b612237848961434b565b60016129b8565b6122489082614199565b90506122767f0000000000000000000000000000000000000000000000000000000000000000828a8a6130ea565b80995060009150612395565b7f000000000000000000000000000000000000000000000000000000000000000073ffffffffffffffffffffffffffffffffffffffff168973ffffffffffffffffffffffffffffffffffffffff1614612337576040517f08c379a000000000000000000000000000000000000000000000000000000000815260206004820152601460248201527f494e56414c49445f4f55545055545f544f4b454e00000000000000000000000060448201526064016106bd565b61235681612345848961434b565b61234f848961434b565b60006129b8565b6123609083614199565b915061238e7f0000000000000000000000000000000000000000000000000000000000000000838a8a6130ea565b5097508760005b61239d612bb5565b604080518381526020810183905273ffffffffffffffffffffffffffffffffffffffff8a169133917fdccd412f0b1252819cb1fd330b93224ca42612892bb3f4f789976e6d81936496910160405180910390a350506001600755509598975050505050505050565b4284101561246f576040517f08c379a000000000000000000000000000000000000000000000000000000000815260206004820152601760248201527f5045524d49545f444541444c494e455f4558504952454400000000000000000060448201526064016106bd565b600061247961142f565b73ffffffffffffffffffffffffffffffffffffffff8916600090815260036020526040812080547f6e71edae12b1b97f4d1f60370fef10105fa2faae0126114a169c64845d6126c9928c928c928c929091906124d483614362565b9091555060408051602081019690965273ffffffffffffffffffffffffffffffffffffffff94851690860152929091166060840152608083015260a082015260c0810187905260e001604051602081830303815290604052805190602001206040516020016125759291907f190100000000000000000000000000000000000000000000000000000000000081526002810192909252602282015260420190565b604080517fffffffffffffffffffffffffffffffffffffffffffffffffffffffffffffffe08184030181528282528051602091820120600080855291840180845281905260ff88169284019290925260608301869052608083018590529092509060019060a0016020604051602081039080840390855afa1580156125fe573d6000803e3d6000fd5b50506040517fffffffffffffffffffffffffffffffffffffffffffffffffffffffffffffffe0015191505073ffffffffffffffffffffffffffffffffffffffff81161580159061267957508873ffffffffffffffffffffffffffffffffffffffff168173ffffffffffffffffffffffffffffffffffffffff16145b6126df576040517f08c379a000000000000000000000000000000000000000000000000000000000815260206004820152601860248201527f494e56414c49445f5045524d49545f5349474e4154555245000000000000000060448201526064016106bd565b73ffffffffffffffffffffffffffffffffffffffff81811660009081526002602090815260408083208c8516808552908352928190208b9055518a815291928c16917f8c5be1e5ebec7d5bd14f71427d1e84f3dd0314c0f7b2291e5b200ac8c7c3b925910160405180910390a3505050505050505050565b60008060006127646127a2565b915091506000612774838361334a565b6000549091506127866012600a614245565b612790908361430e565b61279a91906141b1565b935050505090565b6005546040517f5662311800000000000000000000000000000000000000000000000000000000815273ffffffffffffffffffffffffffffffffffffffff7f0000000000000000000000000000000000000000000000000000000000000000811660048301526fffffffffffffffffffffffffffffffff808416602484018190526000604485015293700100000000000000000000000000000000900416917f00000000000000000000000000000000000000000000000000000000000000009091169063566231189060640160206040518083038186803b15801561288757600080fd5b505afa15801561289b573d6000803e3d6000fd5b505050506040513d601f19601f820116820180604052508101906128bf9190613fd0565b6040517f5662311800000000000000000000000000000000000000000000000000000000815273ffffffffffffffffffffffffffffffffffffffff7f00000000000000000000000000000000000000000000000000000000000000008116600483015260248201849052600060448301529193507f0000000000000000000000000000000000000000000000000000000000000000909116906356623118906064015b60206040518083038186803b15801561297a57600080fd5b505afa15801561298e573d6000803e3d6000fd5b505050506040513d601f19601f820116820180604052508101906129b29190613fd0565b90509091565b60007f000000000000000000000000000000000000000000000000000000000000000084027f000000000000000000000000000000000000000000000000000000000000000084026127107f0000000000000000000000000000000000000000000000000000000000000000880204870383612a34848461391e565b90508515612ab0577f0000000000000000000000000000000000000000000000000000000000000000820284016000612a6d8284613a71565b905060018186030396507f00000000000000000000000000000000000000000000000000000000000000008781612aa657612aa66143ca565b0496505050612b20565b7f0000000000000000000000000000000000000000000000000000000000000000820283016000612ae18284613a71565b905060018187030396507f00000000000000000000000000000000000000000000000000000000000000008781612b1a57612b1a6143ca565b04965050505b50505050949350505050565b612b38858486846130ea565b815115612bae576040517fbd50c7b1000000000000000000000000000000000000000000000000000000008152339063bd50c7b190612b7b908590600401614137565b600060405180830381600087803b158015612b9557600080fd5b505af1158015612ba9573d6000803e3d6000fd5b505050505b5050505050565b600080612bc0612cc4565b90925090506fffffffffffffffffffffffffffffffff82108015612bf357506fffffffffffffffffffffffffffffffff81105b612c59576040517f08c379a000000000000000000000000000000000000000000000000000000000815260206004820152600860248201527f4f564552464c4f5700000000000000000000000000000000000000000000000060448201526064016106bd565b6fffffffffffffffffffffffffffffffff818116700100000000000000000000000000000000029083161760055560408051838152602081018390527fcf2aa50876cdfbb541206f89af0ee78d44a2abf8d328e37fa4917f982149848a910160405180910390a15050565b6040517ff7888aec00000000000000000000000000000000000000000000000000000000815273ffffffffffffffffffffffffffffffffffffffff7f0000000000000000000000000000000000000000000000000000000000000000818116600484015230602484015260009283927f00000000000000000000000000000000000000000000000000000000000000001691635662311891839063f7888aec9060440160206040518083038186803b158015612d7f57600080fd5b505afa158015612d93573d6000803e3d6000fd5b505050506040513d601f19601f82011682018060405250810190612db79190613fd0565b6040517fffffffff0000000000000000000000000000000000000000000000000000000060e085901b16815273ffffffffffffffffffffffffffffffffffffffff909216600483015260248201526000604482015260640160206040518083038186803b158015612e2757600080fd5b505afa158015612e3b573d6000803e3d6000fd5b505050506040513d601f19601f82011682018060405250810190612e5f9190613fd0565b6040517ff7888aec00000000000000000000000000000000000000000000000000000000815273ffffffffffffffffffffffffffffffffffffffff7f000000000000000000000000000000000000000000000000000000000000000081811660048401523060248401529294507f00000000000000000000000000000000000000000000000000000000000000001691635662311891839063f7888aec9060440160206040518083038186803b158015612f1857600080fd5b505afa158015612f2c573d6000803e3d6000fd5b505050506040513d601f19601f82011682018060405250810190612f509190613fd0565b6040517fffffffff0000000000000000000000000000000000000000000000000000000060e085901b16815273ffffffffffffffffffffffffffffffffffffffff9092166004830152602482015260006044820152606401612962565b60008054600654909190801561304f57612fc7858561334a565b91508082111561304f576000612710836004548486612fe6919061434b565b612ff0908861430e565b612ffa919061430e565b61300491906141b1565b61300e91906141b1565b9050801561304d576130407f0000000000000000000000000000000000000000000000000000000000000000826138ae565b61304a8185614199565b93505b505b509250929050565b73ffffffffffffffffffffffffffffffffffffffff82166000908152600160205260408120805483929061308c90849061434b565b909155505060008054829003815560405182815273ffffffffffffffffffffffffffffffffffffffff8416907fddf252ad1be2c89b69c2b068fc378daa952ba7f163c4a11628f55a4df523b3ef906020015b60405180910390a35050565b80156131d3576040517f97da6d3000000000000000000000000000000000000000000000000000000000815273ffffffffffffffffffffffffffffffffffffffff8581166004830152306024830152838116604483015260648201859052600060848301527f000000000000000000000000000000000000000000000000000000000000000016906397da6d309060a4016040805180830381600087803b15801561319457600080fd5b505af11580156131a8573d6000803e3d6000fd5b505050506040513d601f19601f820116820180604052508101906131cc9190613fe9565b5050613344565b6040517fda5139ca00000000000000000000000000000000000000000000000000000000815273ffffffffffffffffffffffffffffffffffffffff858116600483015260248201859052600060448301527f0000000000000000000000000000000000000000000000000000000000000000169063f18d03cc90869030908690859063da5139ca9060640160206040518083038186803b15801561327657600080fd5b505afa15801561328a573d6000803e3d6000fd5b505050506040513d601f19601f820116820180604052508101906132ae9190613fd0565b6040517fffffffff0000000000000000000000000000000000000000000000000000000060e087901b16815273ffffffffffffffffffffffffffffffffffffffff94851660048201529284166024840152921660448201526064810191909152608401600060405180830381600087803b15801561332b57600080fd5b505af115801561333f573d6000803e3d6000fd5b505050505b50505050565b60007f000000000000000000000000000000000000000000000000000000000000000083027f0000000000000000000000000000000000000000000000000000000000000000830261339c828261391e565b95945050505050565b6005546040517ff7888aec00000000000000000000000000000000000000000000000000000000815273ffffffffffffffffffffffffffffffffffffffff7f0000000000000000000000000000000000000000000000000000000000000000811660048301523060248301526fffffffffffffffffffffffffffffffff808416937001000000000000000000000000000000009004169160009182917f00000000000000000000000000000000000000000000000000000000000000009091169063f7888aec9060440160206040518083038186803b15801561348757600080fd5b505afa15801561349b573d6000803e3d6000fd5b505050506040513d601f19601f820116820180604052508101906134bf9190613fd0565b6040517ff7888aec00000000000000000000000000000000000000000000000000000000815273ffffffffffffffffffffffffffffffffffffffff7f0000000000000000000000000000000000000000000000000000000000000000811660048301523060248301529193507f00000000000000000000000000000000000000000000000000000000000000009091169063f7888aec9060440160206040518083038186803b15801561357157600080fd5b505afa158015613585573d6000803e3d6000fd5b505050506040513d601f19601f820116820180604052508101906135a99190613fd0565b6040517f4ffe34db00000000000000000000000000000000000000000000000000000000815273ffffffffffffffffffffffffffffffffffffffff7f0000000000000000000000000000000000000000000000000000000000000000811660048301529192506000917f00000000000000000000000000000000000000000000000000000000000000001690634ffe34db90602401604080518083038186803b15801561365557600080fd5b505afa158015613669573d6000803e3d6000fd5b505050506040513d601f19601f8201168201806040525081019061368d9190613f75565b6040517f4ffe34db00000000000000000000000000000000000000000000000000000000815273ffffffffffffffffffffffffffffffffffffffff7f0000000000000000000000000000000000000000000000000000000000000000811660048301529192506000917f00000000000000000000000000000000000000000000000000000000000000001690634ffe34db90602401604080518083038186803b15801561373957600080fd5b505afa15801561374d573d6000803e3d6000fd5b505050506040513d601f19601f820116820180604052508101906137719190613f75565b905061377d8287613ba3565b95506137898186613ba3565b94506137958285613ba3565b93506137a18184613ba3565b9250505090919293565b6000808315806137b9575082155b156137c9575060009050806138a5565b6000846137d6858961430e565b6137e091906141b1565b905085811161383b576137f6612710600261430e565b613800828861434b565b61382a907f000000000000000000000000000000000000000000000000000000000000000061430e565b61383491906141b1565b91506138a3565b600084613848878961430e565b61385291906141b1565b9050613861612710600261430e565b61386b828a61434b565b613895907f000000000000000000000000000000000000000000000000000000000000000061430e565b61389f91906141b1565b9350505b505b94509492505050565b806000808282546138bf9190614199565b909155505073ffffffffffffffffffffffffffffffffffffffff82166000818152600160209081526040808320805486019055518481527fddf252ad1be2c89b69c2b068fc378daa952ba7f163c4a11628f55a4df523b3ef91016130de565b60008061392b8385614199565b90508061393757600091505b600081815b610100811015613a67576000600487848a613957828061430e565b61396191906141b1565b61396b919061430e565b61397591906141b1565b61397f91906141b1565b9050829350806003613991919061430e565b8360016139bf60647f00000000000000000000000000000000000000000000000000000000000000006141b1565b6139c9919061434b565b6139d3919061430e565b6139dd9190614199565b836139e983600261430e565b6064613a15897f000000000000000000000000000000000000000000000000000000000000000061430e565b613a1f91906141b1565b613a299190614199565b613a33919061430e565b613a3d91906141b1565b9250613a498385613c03565b15613a545750613a67565b5080613a5f81614362565b91505061393c565b5095945050505050565b600080613a7f84600261430e565b613a89848061430e565b613a9391906141b1565b90506064613ac27f0000000000000000000000000000000000000000000000000000000000000000600261430e565b613acc91906141b1565b613ad6848361430e565b613ae091906141b1565b905060007f0000000000000000000000000000000000000000000000000000000000000000613b1060648661430e565b613b1a91906141b1565b613b249086614199565b9050600084935060005b610100811015612036578491508583613b4884600261430e565b613b529190614199565b613b5c919061434b565b84613b67878061430e565b613b719190614199565b613b7b91906141b1565b9450613b878583613c03565b15613b9157612036565b80613b9b81614362565b915050613b2e565b600082602001516fffffffffffffffffffffffffffffffff1660001415613bcb575080610ff6565b602083015183516fffffffffffffffffffffffffffffffff91821691613bf291168461430e565b613bfc91906141b1565b9392505050565b600081831115613c1a575060018183031115610ff6565b506001919003111590565b80358015158114613c3557600080fd5b919050565b80516fffffffffffffffffffffffffffffffff81168114613c3557600080fd5b600060208284031215613c6c57600080fd5b8135613bfc81614457565b600080600060608486031215613c8c57600080fd5b8335613c9781614457565b92506020840135613ca781614457565b9150613cb560408501613c25565b90509250925092565b600080600080600060a08688031215613cd657600080fd5b8535613ce181614457565b9450602086810135613cf281614457565b9450613d0060408801613c25565b935060608701359250608087013567ffffffffffffffff80821115613d2457600080fd5b818901915089601f830112613d3857600080fd5b813581811115613d4a57613d4a614428565b613d7a847fffffffffffffffffffffffffffffffffffffffffffffffffffffffffffffffe0601f8401160161414a565b91508082528a84828501011115613d9057600080fd5b80848401858401376000848284010152508093505050509295509295909350565b60008060408385031215613dc457600080fd5b8235613dcf81614457565b9150613ddd60208401613c25565b90509250929050565b60008060408385031215613df957600080fd5b8235613e0481614457565b946020939093013593505050565b60008060408385031215613e2557600080fd5b8235613e3081614457565b91506020830135613e4081614457565b809150509250929050565b600080600060608486031215613e6057600080fd5b8335613e6b81614457565b92506020840135613e7b81614457565b929592945050506040919091013590565b600080600080600080600060e0888a031215613ea757600080fd5b8735613eb281614457565b96506020880135613ec281614457565b95506040880135945060608801359350608088013560ff81168114613ee657600080fd5b9699959850939692959460a0840135945060c09093013592915050565b60008060208385031215613f1657600080fd5b823567ffffffffffffffff80821115613f2e57600080fd5b818501915085601f830112613f4257600080fd5b813581811115613f5157600080fd5b866020828501011115613f6357600080fd5b60209290920196919550909350505050565b600060408284031215613f8757600080fd5b6040516040810181811067ffffffffffffffff82111715613faa57613faa614428565b604052613fb683613c3a565b8152613fc460208401613c3a565b60208201529392505050565b600060208284031215613fe257600080fd5b5051919050565b60008060408385031215613ffc57600080fd5b505080516020909101519092909150565b6000815180845260005b8181101561403357602081850181015186830182015201614017565b81811115614045576000602083870101525b50601f017fffffffffffffffffffffffffffffffffffffffffffffffffffffffffffffffe0169290920160200192915050565b6020808252825182820181905260009190848201906040850190845b818110156140c657835173ffffffffffffffffffffffffffffffffffffffff1683529284019291840191600101614094565b50909695505050505050565b602080825282518282018190526000919060409081850190868401855b8281101561412a578151805173ffffffffffffffffffffffffffffffffffffffff1685528601518685015292840192908501906001016140ef565b5091979650505050505050565b602081526000613bfc602083018461400d565b604051601f82017fffffffffffffffffffffffffffffffffffffffffffffffffffffffffffffffe016810167ffffffffffffffff8111828210171561419157614191614428565b604052919050565b600082198211156141ac576141ac61439b565b500190565b6000826141e7577f4e487b7100000000000000000000000000000000000000000000000000000000600052601260045260246000fd5b500490565b600181815b8085111561304f57817fffffffffffffffffffffffffffffffffffffffffffffffffffffffffffffffff0482111561422b5761422b61439b565b8085161561423857918102915b93841c93908002906141f1565b6000613bfc60ff84168360008261425e57506001610ff6565b8161426b57506000610ff6565b8160018114614281576002811461428b576142a7565b6001915050610ff6565b60ff84111561429c5761429c61439b565b50506001821b610ff6565b5060208310610133831016604e8410600b84101617156142ca575081810a610ff6565b6142d483836141ec565b807fffffffffffffffffffffffffffffffffffffffffffffffffffffffffffffffff048211156143065761430661439b565b029392505050565b6000817fffffffffffffffffffffffffffffffffffffffffffffffffffffffffffffffff04831182151516156143465761434661439b565b500290565b60008282101561435d5761435d61439b565b500390565b60007fffffffffffffffffffffffffffffffffffffffffffffffffffffffffffffffff8214156143945761439461439b565b5060010190565b7f4e487b7100000000000000000000000000000000000000000000000000000000600052601160045260246000fd5b7f4e487b7100000000000000000000000000000000000000000000000000000000600052601260045260246000fd5b7f4e487b7100000000000000000000000000000000000000000000000000000000600052603260045260246000fd5b7f4e487b7100000000000000000000000000000000000000000000000000000000600052604160045260246000fd5b73ffffffffffffffffffffffffffffffffffffffff8116811461447957600080fd5b5056fea26469706673582212203e74bfabe607e564c001d09b7008d44b90317814d0a8e27370f0d64e8293a4b064736f6c63430008070033",
  "linkReferences": {},
  "deployedLinkReferences": {}
}